{
  "contractName": "dBank",
  "abi": [
    {
      "inputs": [
        {
          "internalType": "contract Token",
          "name": "_token",
          "type": "address"
        }
      ],
      "stateMutability": "nonpayable",
      "type": "constructor"
    },
    {
      "anonymous": false,
      "inputs": [
        {
          "indexed": true,
          "internalType": "address",
          "name": "_user",
          "type": "address"
        },
        {
          "indexed": false,
          "internalType": "uint256",
          "name": "_amount",
          "type": "uint256"
        },
        {
          "indexed": false,
          "internalType": "uint256",
          "name": "_timestamp",
          "type": "uint256"
        }
      ],
      "name": "Deposit",
      "type": "event"
    },
    {
      "anonymous": false,
      "inputs": [
        {
          "indexed": true,
          "internalType": "address",
          "name": "_user",
          "type": "address"
        },
        {
          "indexed": false,
          "internalType": "uint256",
          "name": "_userBalance",
          "type": "uint256"
        },
        {
          "indexed": false,
          "internalType": "uint256",
          "name": "_depositTime",
          "type": "uint256"
        },
        {
          "indexed": false,
          "internalType": "uint256",
          "name": "intrest",
          "type": "uint256"
        }
      ],
      "name": "Withdraw",
      "type": "event"
    },
    {
      "inputs": [
        {
          "internalType": "address",
          "name": "",
          "type": "address"
        }
      ],
      "name": "depositStart",
      "outputs": [
        {
          "internalType": "uint256",
          "name": "",
          "type": "uint256"
        }
      ],
      "stateMutability": "view",
      "type": "function",
      "constant": true
    },
    {
      "inputs": [
        {
          "internalType": "address",
          "name": "",
          "type": "address"
        }
      ],
      "name": "etherBalanceOf",
      "outputs": [
        {
          "internalType": "uint256",
          "name": "",
          "type": "uint256"
        }
      ],
      "stateMutability": "view",
      "type": "function",
      "constant": true
    },
    {
      "inputs": [
        {
          "internalType": "address",
          "name": "",
          "type": "address"
        }
      ],
      "name": "isDeposited",
      "outputs": [
        {
          "internalType": "bool",
          "name": "",
          "type": "bool"
        }
      ],
      "stateMutability": "view",
      "type": "function",
      "constant": true
    },
    {
      "inputs": [],
      "name": "deposit",
      "outputs": [],
      "stateMutability": "payable",
      "type": "function",
      "payable": true
    },
    {
      "inputs": [],
      "name": "withdraw",
      "outputs": [],
      "stateMutability": "nonpayable",
      "type": "function"
    },
    {
      "inputs": [],
      "name": "borrow",
      "outputs": [],
      "stateMutability": "payable",
      "type": "function",
      "payable": true
    },
    {
      "inputs": [],
      "name": "payOff",
      "outputs": [],
      "stateMutability": "nonpayable",
      "type": "function"
    }
  ],
  "bytecode": "0x608060405234801561001057600080fd5b506040516109fe3803806109fe8339818101604052602081101561003357600080fd5b8101908080519060200190929190505050806000806101000a81548173ffffffffffffffffffffffffffffffffffffffff021916908373ffffffffffffffffffffffffffffffffffffffff1602179055505061096a806100946000396000f3fe6080604052600436106100705760003560e01c8063737320241161004e5780637373202414610108578063d0e30db01461016f578063e68d356914610179578063ff87930a1461018357610070565b8063179fc99f146100755780633ccfd60b146100da5780633fac68d5146100f1575b600080fd5b34801561008157600080fd5b506100c46004803603602081101561009857600080fd5b81019080803573ffffffffffffffffffffffffffffffffffffffff1690602001909291905050506101e8565b6040518082815260200191505060405180910390f35b3480156100e657600080fd5b506100ef610200565b005b3480156100fd57600080fd5b506101066105e7565b005b34801561011457600080fd5b506101576004803603602081101561012b57600080fd5b81019080803573ffffffffffffffffffffffffffffffffffffffff1690602001909291905050506105e9565b60405180821515815260200191505060405180910390f35b610177610609565b005b6101816108e9565b005b34801561018f57600080fd5b506101d2600480360360208110156101a657600080fd5b81019080803573ffffffffffffffffffffffffffffffffffffffff1690602001909291905050506108eb565b6040518082815260200191505060405180910390f35b60016020528060005260406000206000915090505481565b60011515600360003373ffffffffffffffffffffffffffffffffffffffff1673ffffffffffffffffffffffffffffffffffffffff16815260200190815260200160002060009054906101000a900460ff161515146102c6576040517f08c379a000000000000000000000000000000000000000000000000000000000815260040180806020018281038252601f8152602001807f596f75206861766520746f206465706f73697420746f2077697468647261770081525060200191505060405180910390fd5b6000600160003373ffffffffffffffffffffffffffffffffffffffff1673ffffffffffffffffffffffffffffffffffffffff1681526020019081526020016000205490506000600260003373ffffffffffffffffffffffffffffffffffffffff1673ffffffffffffffffffffffffffffffffffffffff16815260200190815260200160002054420390506000662386f26fc10000600160003373ffffffffffffffffffffffffffffffffffffffff1673ffffffffffffffffffffffffffffffffffffffff16815260200190815260200160002054816103a157fe5b046301e33731029050600082820290503373ffffffffffffffffffffffffffffffffffffffff166108fc859081150290604051600060405180830381858888f193505050501580156103f7573d6000803e3d6000fd5b506000600160003373ffffffffffffffffffffffffffffffffffffffff1673ffffffffffffffffffffffffffffffffffffffff1681526020019081526020016000208190555060008054906101000a900473ffffffffffffffffffffffffffffffffffffffff1673ffffffffffffffffffffffffffffffffffffffff166340c10f1933836040518363ffffffff1660e01b8152600401808373ffffffffffffffffffffffffffffffffffffffff16815260200182815260200192505050600060405180830381600087803b1580156104ce57600080fd5b505af11580156104e2573d6000803e3d6000fd5b505050506000600260003373ffffffffffffffffffffffffffffffffffffffff1673ffffffffffffffffffffffffffffffffffffffff168152602001908152602001600020819055506000600360003373ffffffffffffffffffffffffffffffffffffffff1673ffffffffffffffffffffffffffffffffffffffff16815260200190815260200160002060006101000a81548160ff0219169083151502179055503373ffffffffffffffffffffffffffffffffffffffff167f02f25270a4d87bea75db541cdfe559334a275b4a233520ed6c0a2429667cca9485858460405180848152602001838152602001828152602001935050505060405180910390a250505050565b565b60036020528060005260406000206000915054906101000a900460ff1681565b60001515600360003373ffffffffffffffffffffffffffffffffffffffff1673ffffffffffffffffffffffffffffffffffffffff16815260200190815260200160002060009054906101000a900460ff161515146106cf576040517f08c379a000000000000000000000000000000000000000000000000000000000815260040180806020018281038252601e8152602001807f596f7572204465706f73697420697320416c726561647920616374697665000081525060200191505060405180910390fd5b662386f26fc1000034101561072f576040517f08c379a00000000000000000000000000000000000000000000000000000000081526004018080602001828103825260318152602001806109046031913960400191505060405180910390fd5b34600160003373ffffffffffffffffffffffffffffffffffffffff1673ffffffffffffffffffffffffffffffffffffffff1681526020019081526020016000205401600160003373ffffffffffffffffffffffffffffffffffffffff1673ffffffffffffffffffffffffffffffffffffffff1681526020019081526020016000208190555042600260003373ffffffffffffffffffffffffffffffffffffffff1673ffffffffffffffffffffffffffffffffffffffff1681526020019081526020016000205401600260003373ffffffffffffffffffffffffffffffffffffffff1673ffffffffffffffffffffffffffffffffffffffff168152602001908152602001600020819055506001600360003373ffffffffffffffffffffffffffffffffffffffff1673ffffffffffffffffffffffffffffffffffffffff16815260200190815260200160002060006101000a81548160ff0219169083151502179055503373ffffffffffffffffffffffffffffffffffffffff167f90890809c654f11d6e72a28fa60149770a0d11ec6c92319d6ceb2bb0a4ea1a153442604051808381526020018281526020019250505060405180910390a2565b565b6002602052806000526040600020600091509050548156fe4465706f736974206d757374206265206f662067726561746572207468656e206f7220657175616c20302e303120455448a264697066735822122082a108842e186232a174bb32523aba11fea86b9cedeffc9f66bbbf56572ed2ab64736f6c63430007060033",
  "immutableReferences": {},
  "source": "// SPDX-License-Identifier: MIT\r\npragma solidity >=0.6.0 <0.8.0;\r\n\r\nimport \"./Token.sol\";\r\n\r\ncontract dBank {\r\n    Token private token;\r\n\r\n    //mapping for keeping the track of addresses and there balance of eth\r\n\r\n    mapping(address => uint256) public etherBalanceOf;\r\n    mapping(address => uint256) public depositStart;\r\n    mapping(address => bool) public isDeposited;\r\n\r\n    //odd events\r\n    event Deposit(address indexed _user, uint256 _amount, uint256 _timestamp);\r\n    event Withdraw(\r\n        address indexed _user,\r\n        uint256 _userBalance,\r\n        uint256 _depositTime,\r\n        uint256 intrest\r\n    );\r\n\r\n    constructor(Token _token) {\r\n        token = _token;\r\n    }\r\n\r\n    //deposits the ethers into the bank\r\n    function deposit() public payable {\r\n        //if the user has already deposited then revert the transaction\r\n        require(\r\n            isDeposited[msg.sender] == false,\r\n            \"Your Deposit is Already active\"\r\n        );\r\n        require(\r\n            msg.value >= 1e16,\r\n            \"Deposit must be of greater then or equal 0.01 ETH\"\r\n        );\r\n\r\n        //take the deposited ammount and add it to the existing balance\r\n        etherBalanceOf[msg.sender] = etherBalanceOf[msg.sender] + msg.value;\r\n        //adding up the timestamp value from the current block.\r\n        //beacuse the user gets to deposit money only once the timestamps wont overlap\r\n        //adding because default value for uint in solidity is 0\r\n        depositStart[msg.sender] = depositStart[msg.sender] + block.timestamp;\r\n        //setting the deposit status to true\r\n        isDeposited[msg.sender] = true;\r\n        //emitting the event\r\n        emit Deposit(msg.sender, msg.value, block.timestamp);\r\n    }\r\n\r\n    function withdraw() public {\r\n        //checks\r\n        require(\r\n            isDeposited[msg.sender] == true,\r\n            \"You have to deposit to withdraw\"\r\n        );\r\n        uint256 userBalance = etherBalanceOf[msg.sender];\r\n\r\n        //the total time the user is holding his coins in the bank is the below expression\r\n        uint256 depositTime = block.timestamp - depositStart[msg.sender];\r\n        //cal the intrest a user earned by the time of his/her withdrawing\r\n        uint256 intrestPerSecond = 31668017 *\r\n            (etherBalanceOf[msg.sender] / 1e16);\r\n        uint256 intrest = intrestPerSecond * depositTime;\r\n\r\n        //withdraw the ethers in the account completely and trasfer it to the depositor\r\n        msg.sender.transfer(userBalance);\r\n        etherBalanceOf[msg.sender] = 0;\r\n        //minting the tokens that are earned as intrest by the user\r\n        token.mint(msg.sender, intrest);\r\n\r\n        //resetting the users data\r\n        depositStart[msg.sender] = 0;\r\n        isDeposited[msg.sender] = false;\r\n\r\n        //emit the event\r\n        emit Withdraw(msg.sender, userBalance, depositTime, intrest);\r\n    }\r\n\r\n    function borrow() public payable {}\r\n\r\n    function payOff() public {}\r\n}\r\n",
  "sourcePath": "C:/VS--Code/D-Bank/dbank/src/contracts/dBank.sol",
  "compiler": {
    "name": "solc",
    "version": "0.7.6+commit.7338295f.Emscripten.clang"
  },
  "schemaVersion": "3.2.3",
  "updatedAt": "2021-12-24T08:28:10.009Z",
  "networkType": "ethereum",
  "devdoc": {
    "kind": "dev",
    "methods": {},
    "version": 1
  },
  "userdoc": {
    "kind": "user",
    "methods": {},
    "version": 1
  }
}